:020000040001F9
:10B00000B03C0020D5B00100EFB00100F1B001006C
:10B010000000000000000000000000000000000030
:10B02000000000000000000000000000F3B001007C
:10B030000000000000000000F5B00100F7B00100C2
:10B040007DB90100F9B0010035BD0100F9B0010082
:10B05000F9B0010000000000E9B7010089B7010064
:10B06000F1BC0100F9B00100F9B00100F9B0010034
:10B07000F9B00100F9B00100F9B00100F9B0010028
:10B08000F9B00100D1B90100F9B00100F9B0010037
:10B090001DBC0100F9B0010025BC0100F9B00100A0
:10B0A000F9B00100F9B0010000000000000000004C
:10B0B0000000000000000000000000000000000090
:10B0C0000348854600F0BAFA004800470DF0010039
:10B0D000B03C00200321094802680A430260084886
:10B0E00002680A4302600748804707480047FEE7B6
:10B0F000FEE7FEE7FEE7FEE7FEE70000240500406E
:10B100005405004051BC0100C1B0010030B50B46F0
:10B11000014600202022012409E00D46D5409D4231
:10B1200005D31D469540491B2546954040191546B7
:10B13000521E002DF1DC30BD70B5002425460028DC
:10B1400001DA01244042002901DA01254942FFF7D2
:10B15000DDFFAC4200D04042002C00D0494270BD1F
:10B1600003460B439B0703D009E008C9121F08C020
:10B17000042AFAD203E00B780370401C491C521ECB
:10B18000F9D27047D2B201E00270401C491EFBD2D6
:10B1900070470022F6E710B513460A4604461946E2
:10B1A000FFF7F0FF204610BD30B505462A460B4696
:10B1B00010781C78521C5B1C002801D0A042F7D0EC
:10B1C000002C03D0002802D06D1CEFE7284630BDCC
:10B1D000421C0178401C0029FBD1801A704710B531
:10B1E000002200E0521C835C8C5CA34201D1002B46
:10B1F000F8D1D8B2E1B2401A10BD03460A78027005
:10B20000401C491C002AF9D11846704770B5104DF2
:10B21000002800D12868002414E00A4602E09E427B
:10B2200003D0521C1378002BF9D1DAB2224307D095
:10B23000002B06D0002C04D000210170401C04E03B
:10B240000446401C0678002EE7D12860204670BDD9
:10B250002C21002070B5064600F03CFF046805462E
:10B260000A220021304600F051F92C6070BD000028
:10B27000F0B51FB488B00B9909980024484009998B
:10B28000C00F490049080991C0070B990090490077
:10B2900049080B9109990898A64608431CD00B99B8
:10B2A0000A98084318D0099801244000420D48002C
:10B2B000410D099824050003000B204309900B98C9
:10B2C0000003000B20430B9050181C49401800222B
:10B2D00001901446104605E0002001460DB0F0BD77
:10B2E000032801DA034600E003239C46C11A0AAE94
:10B2F0000AE05F0008ADED5B4F00F75B7D43002780
:10B30000AA187C41491C5B1E6145F2DD410004AB7B
:10B310005A522104120C0A43240C401C0828DFDB7B
:10B32000019802900099704601910090059B049A43
:10B330000799069800F02FF9D0E700000DFCFFFFF9
:10B34000F0B50C465C4085B0E40FE40703944C0074
:10B350000026640859009446490802460296224392
:10B3600021D062460A431ED06200570D4A000E03E8
:10B370002303550D012402462C492405781B1B0B81
:10B38000360B401823432643614600901C46501A52
:10B39000B44103D30098401C009002E0921800983A
:10B3A0005B41002803DA0020014605B0F0BD002013
:10B3B000012109050746864611E064461D46141B17
:10B3C000B54106D36546521BB341744607430C434F
:10B3D000A646CD0740084908284392185B41054618
:10B3E0000D43EAD11046184313D060461946504029
:10B3F0007140084306D06046101AB34106D20122BC
:10B40000002306E000220123DB0702E00122D243F1
:10B410005310009874460105381C6141029C039D3D
:10B420000019694100F0AAF8BFE70000FD03000021
:10B430000EB505490291002100910A460B46019183
:10B4400000F0A9F803B000BD330400004A0009036E
:10B450000123090B1B051943094B10B5520D9A42E4
:10B4600001DA002010BD064B34339A4203DC9A1AED
:10B4700000F03AF810BD03495118884010BD000093
:10B48000FF030000CDFBFFFFF0B51FB40646002010
:10B4900082B005464024019100901BE001992246AC
:10B4A0000F46304600F020F8049A059B801A994117
:10B4B00010D310461946224600F0D2F8361A8F41B2
:10B4C0000197224601200021009F00F0C9F838189A
:10B4D0004D4100902046641E0028DFDC019B00984F
:10B4E0002946324607B0F0BD10B5202A04DB0846D5
:10B4F000203AD040002110BD0B46D340D04020243C
:10B50000A21A91400843194610BD0000F7B5009CEF
:10B510000F4600262578641C002D05D000F0B0F8F9
:10B520000068405DC007F5D12B2D02D02D2D18D01D
:10B53000641E39462046029A00F0A6F8002F04D077
:10B540003968A14201D100993960710502240029AE
:10B550000BDA4042002803DD00F0BCFD0460A007C8
:10B56000FEBD012080020643E3E70028F8DA00F080
:10B57000B1FD04600048FEBDFFFFFF7F10B5002B4A
:10B5800008DA0024401C614192185B411A4301D142
:10B590004008400010BDF0B51FB482B005460C0055
:10B5A00003D0084600F072FD02E000F06FFD20308D
:10B5B000024600902146284600F052F8049B059A66
:10B5C00004460F4618431143084314D0184610434D
:10B5D0001BD0009840210A1A18460599FFF784FFEE
:10B5E00005460E46009A0599049800F039F808437C
:10B5F00005D0012004E02046394607B0F0BD002008
:10B60000C11705430E432C43374300990E98630539
:10B61000401A7905E40A00220C43FD0A0A3002D5DB
:10B6200000200146E9E70105101969410C9C0D9DB8
:10B6300000196941FFF7A2FFDFE70000064C012572
:10B64000064E05E0E36807CC2B430C3C98471034CA
:10B65000B442F7D3FFF738FD48200200682002000B
:10B6600010B5202A04DB0146203A9140002010BD8D
:10B67000914020239C1A0346E3401943904010BD9B
:10B6800000487047A01F0200F7B582B0029C002757
:10B690002078641C15460197302802D0002D15D063
:10B6A00015E020780127641C782804D0582802D09F
:10B6B000002D09D00BE0002D01D0102D07D100275F
:10B6C00010252078641C02E0082500E00A250026E9
:10B6D000009610E00099012769430818020C2946DA
:10B6E00080B2714300908E183804864201D3012045
:10B6F00001902078641C294600F019F80028E9DA46
:10B700000398002805D0002F01D0641E00E0029CA1
:10B7100004600198002806D000F0DCFC02210160E2
:10B72000C81E05B0F0BD009930040843F9E73A2877
:10B7300000D23038202302469A43412A01D31046D2
:10B740003738884201D30020C043704730B58C1889
:10B750000278401C13071B0F01D10378401C12090B
:10B7600006D10278401C03E005780D70401C491C8E
:10B770005B1EF9D101E00B70491C521EFBD1A142A6
:10B78000E6D3002030BD0000FEB5134C0026E06873
:10B790000125124F002810D000F0E0FF00280BD048
:10B7A0000120B86068460670E0680190217C684618
:10B7B0000181A57421688847FEBD09480660012003
:10B7C000B8600848066069460D7080688880A57476
:10B7D00068462168EFE70000282900200073004038
:10B7E0000071004000750040F0B50025FF268BB0C9
:10B7F000013601242F460195304604F071FC0028E3
:10B8000007D048484068204203D0304604F060FC2E
:10B810002543361D64007F1CB6B2042FECD3FF24F1
:10B820007D34204604F05CFC002807D0204604F05C
:10B830004FFC600705433C48006901903B4C2807DA
:10B8400014D0012700262F420CD03948B20011181D
:10B8500008690969C004C00E8903A258890F002A2B
:10B8600000D090477F00761C042EECD3002D57DAD1
:10B8700000200590401E4DE0A11940310878850652
:10B88000AD0E42B2521C39D00121A940089A009154
:10B89000114233D080090390284602F0FFF980005E
:10B8A00020580490002802D10398032826D1039839
:10B8B0000099032802D10598084305901D4AA80065
:10B8C00080180068019A8003800F114202D002287C
:10B8D00002D013E0032811D10399032907D10228CC
:10B8E0001CD00221284604F0E3FB7F1CFFB2049821
:10B8F000002803D0049A284603999047761C042E0A
:10B90000BAD3002F0CD0084800690199884207D0AB
:10B910000190059800273E460890ADE70321E1E736
:10B920000BB0F0BD0063004000050050C4280020AB
:10B9300000650040000700508307FF22DB0E9A409D
:10B940008907090E994000280BDA0007000F083814
:10B95000830808489B001818C36993430B43C361CD
:10B960007047830804489B001B18186890430843DD
:10B970001860704700ED00E000E400E0F8B5FF203B
:10B98000013003F0FAFC002401250E4E0E4F002872
:10B9900007D00E4804600120B0607D70002002F0E6
:10B9A00095F9FF20053003F0E8FC002808D007488F
:10B9B000001D04600220B060BD70012002F086F915
:10B9C000F8BD000000030040B02800200001004046
:10B9D00010B506490020086048608860C8600349C7
:10B9E00040390860486005F083FD10BD40110140FA
:10B9F00070B5074B0646187814460D46002801D14D
:10BA000000F0A2F922462946304600F003F870BD46
:10BA1000382C002070B50E461821484313491446AF
:10BA20004518E86A1835002804D001280FD00228EC
:10BA300005D113E0284600F0BDF9A04201D2002450
:10BA400011E022463146284600F0DFFA0BE0284696
:10BA500000F0B0F9A042F4D20446F2E7314628469D
:10BA600000F0A3FA0446204670BD0000382C0020E8
:10BA70000FB408B504A900916A46039900F004F8D0
:10BA800001B008BC04B01847F7B598B007A80290F9
:10BA9000402000250495039018980C4605950690C3
:10BAA0002178641C002977D0252907D002A800F04E
:10BAB0005DFA05980028F3DA1BB0F0BD01220021E1
:10BAC000022713460826207823281BD02B2816D0BF
:10BAD0002D2802D0302806D101E0194300E0394377
:10BAE000641C002AEFD1002220780346303B0A2B49
:10BAF0000AD20A235A431218303A641CF4E704208D
:10BB00000143EDE73143EBE70023C7B22E2F0AD103
:10BB1000641C20780746303F0A2F04D20A277B4353
:10BB20001B18303BF4E76C280DD068280BD0702828
:10BB300052D00BDC25285AD058282ED063280CD0A0
:10BB4000642858D110E02078641CECE7732832D0C8
:10BB5000752817D078284ED11FE01A981A9A0068D5
:10BB6000011D1160017843E01A981A9F0068061DB4
:10BB70003E6000680191009201460A2202A800F08E
:10BB800024F938E01A981A9F0068061D3E60006884
:10BB9000009201910A2209E02FE01A981A9F00688A
:10BBA000061D3E600068009201911022014602A825
:10BBB00000F070F91FE01A981A9A0068011D1160D0
:10BBC00006683178761C002915D002A800F0CEF95D
:10BBD00005980028F5DA0EE01A981A9A00680823EA
:10BBE000011D11600168102200960195DFE72521F3
:10BBF00002A800F0BBF9641C5BE70598002800DC94
:10BC00005AE70498002804D0024607A91898FFF7BD
:10BC1000EFFE04990598401805904DE710B505F022
:10BC2000D9FB10BD10B508484068002808D08047EF
:10BC3000002804D0FF21054A8A3100F04BFF10BDD7
:10BC400003F064F810BD000010210020F01F020076
:10BC500010B503F0FDF8002805D01F491D484860C5
:10BC6000C8131E4988611E48018CC9B201290BD135
:10BC7000828C120708D1028D1206120F042A03D1FA
:10BC8000828D1206120F0AD0012921D1818C090759
:10BC90001ED1018D0906090F0A2904D007E0114AB7
:10BCA00001219160F5E7828D1206120F05D00D2952
:10BCB0000ED1808D0006000F0AD10B4801680129C2
:10BCC00004D00A49016001680129FCD1C021416109
:10BCD00010BD0000DFFF07C000050040006C004001
:10BCE000C00F00F00006004000EC06407593000015
:10BCF000F8B50E4C04270025BE03A8003146A94024
:10BD0000FF3041302258002A0BD003221202A21821
:10BD100052680A4205D000212150054A5168126834
:10BD200090476D1CEDB2BD42E7D3F8BD00800040E6
:10BD30003C29002010B50249024805F071FE10BDF3
:10BD40000C2900200020004010B5124C0220206178
:10BD5000606111A0A0611348E061012040022062EF
:10BD60000020A06260620CA1A1642146E06210394B
:10BD7000E16410212165A0656065E0650AA1E01D10
:10BD8000FFF73BFA09A12046FFF737FA2020A07100
:10BD900010BD0000382C00205465726D696E616C16
:10BDA00000000000282A0020525454005345474701
:10BDB000455200000269C1688A4203D88068401A6F
:10BDC000801800E0501A401E7047FFB583B00E4641
:10BDD00070420D9F0C9C0090002900DB0846012555
:10BDE00002E0FFF7A9F96D1C05998842F9DA069877
:10BDF000A84200D90546002C04D0002E01DB7807AC
:10BE000000D5641EB80702D50698002810D0F807A0
:10BE10000ED1002C0CD0A5420AD22021641E03981A
:10BE200000F0A4F80398C0680028F2DA07B0F0BD6B
:10BE30000398C0680028F9DB002E02DA2D21009E4D
:10BE400002E0780707D52B21039800F08FF80398BC
:10BE5000C0680028EADBB807800F022810D10698D6
:10BE600000280DD1002C0BD0A54209D23021641E30
:10BE7000039800F07BF80398C0680028F2DAD5E751
:10BE8000019700943146069B059A039800F002F84A
:10BE9000CCE70000FFB581B001261F4634460A9D5D
:10BEA000029802E0FFF732F9641C03998842F9D244
:10BEB000A74200D93C460B98C00718D1002D16D0D8
:10BEC0000B98800701D5002F02D0202000900CE0B5
:10BED0003020FBE76D1E0099019800F047F80198AB
:10BEE000C06800283DDB002D01D0AC42F2D30198A0
:10BEF000C068002835DB012F01D97F1E06E03146DE
:10BF00000298FFF703F90399884202D30398464346
:10BF1000F1E7154F31460298FFF7F8F80146029A0B
:10BF20007143511A0291395C019800F01FF8019891
:10BF3000C068002805DB30460399FFF7E7F80600E4
:10BF4000E8D10B98C0070CD0002D0AD0AC4208D223
:10BF500020216D1E019800F009F80198C0680028A2
:10BF6000F2DA05B0F0BD00000C1F020010B5044667
:10BF700080686368421C934205D323681954A26009
:10BF8000E068401CE060A2686068824209D12168D4
:10BF90002069FFF72DFDA168884203D00020C0432F
:10BFA000E06010BD0020A06010BDF7B5064682B06D
:10BFB00000200090F46817463069A04201D9051BA3
:10BFC00002E0B168201A0D1AB0686D1E001BA8426D
:10BFD00000D80546BD4200D33D4670682A46001988
:10BFE0000399FFF7BDF800987F1B40190090039854
:10BFF000641940190390B068A04200D10024F46095
:10C00000002FD9D1009805B0F0BDF7B5C668174626
:10C0100004468068851B6068BD4206D98019019975
:10C02000FFF79EF8F019E060FEBD2A4680190199DD
:10C03000FFF796F801987E1B411932466068FFF7BA
:10C040008FF8E660FEBD00000FB410B5024604A9EB
:10C05000034B039800F0B6F810BC08BC04B01847B6
:10C0600083E501000FB410B504A9074B02AA039899
:10C0700000F0A8F8044602A9002000F0DDFA2046EE
:10C0800010BC08BC04B0184739C601002021020CBE
:10C0900001D010211046020A01D0104608390209C9
:10C0A00001D01046091F820801D01046891E42089F
:10C0B00001D0881E7047081A704730B47446641E59
:10C0C0002578641CAB4200D21D46635D5B00E3181B
:10C0D00030BC1847004870473821002030B5002890
:10C0E00005D0164C021F20680023014605E00846D3
:10C0F00030BD904203D8034640680028F9D1002B98
:10C1000000D05968002B0AD01C68D51AA54204D16A
:10C110001268A4181A461C6002E05A6000E022600F
:10C12000002807D01468851AA54203D10568641950
:10C13000146040685060184630BD00003021002077
:10C14000F1B50E4C0F480C4E001B0D4FC508ED000D
:10C1500000221146009802F01FFE002803D130682B
:10C16000002801D00020F8BD3C6000202560606000
:10C1700001203060ECE7000034210020B42C0020C6
:10C1800030210020B034002002E008C8121F08C18E
:10C19000002AFAD170477047002001E001C1121F48
:10C1A000002AFBD170470000202804DA01218140D9
:10C1B0000348014201D00120704700207047000071
:10C1C000FC06FFBCFFB591B00F460546002606E011
:10C1D00025280AD0149A139990476D1C761C28784C
:10C1E0000028F5D1304615B0F0BD0024009401219F
:10C1F000F34A029400E004436D1C2B780846203B70
:10C2000098401042F7D128782A280ED002212878A9
:10C210000246303A092A15D8009A0A235A43303A7E
:10C2200080180C436D1C0090F1E701CF00900028AE
:10C2300005DA0120400304430098404200900220A8
:10C2400004436D1C28782E2815D1042004436878F7
:10C250006D1C2A280AD101CF6D1C02900BE00299B7
:10C260000A225143303940186D1C0290287801464B
:10C2700030390929F3D928786C2810D006DC4C28ED
:10C280001AD068280ED06A2817D104E0742813D079
:10C290007A2812D110E00120400504430CE001216E
:10C2A000090501E0032109050C436978814203D1A6
:10C2B0000120000524186D1C6D1C287803906E2841
:10C2C0001ED00CDC632831D004DC00288AD058282A
:10C2D00011D1B2E064287BD069280CD178E07328B2
:10C2E0002DD004DC6F2870D0702804D1A7E0752809
:10C2F0006CD078286BD0149A13999047761C62E022
:10C300006002400F022807D003280AD004283868AA
:10C310000AD006603F1D56E03868F117066041609C
:10C32000F8E738680680F5E70670F3E7387869467D
:10C3300008740020487404A80390012003E03868C2
:10C3400003900020C0433F1D61070FD5002101E08D
:10C350000199491C029A0191914213DA8142F7DB5B
:10C36000019A0399895C0029F2D10BE0002101E0D8
:10C370000199491C01918142FADB019A0399895C78
:10C380000029F5D101990098139A401A009021468E
:10C39000149B00F03BF901998019461807E00398B7
:10C3A00003990078491C0391149A139990470198B6
:10C3B000401E0190401CF2D12146149B139A009814
:10C3C00000F014F986196D1C09E741E033E034E010
:10C3D0000A200021049005916002410F022905D036
:10C3E00001CFC2179446032905D007E0FF1DFF08BF
:10C3F000FF0003CF06E000B2C2179446042902D121
:10C4000040B2C1178C4600226146944506DA0A46BE
:10C410000021404291418C462D2102E0210504D5A6
:10C420002B216A461176012103E0E10701D020218A
:10C43000F7E7019154E00A200BE0102009E01020FA
:10C44000049000210420044308200591029003E099
:10C4500008200021059104906002410F022905D0B7
:10C4600001CF00229446032906D006E0FF1DFF08F5
:10C47000FF0003CF8C4603E080B2042900D1C0B294
:10C480000021019121072BD50399702906D0049A28
:10C490001021059B4A401A4305D00EE040216A4610
:10C4A0001176012108E06146014306D030216A4639
:10C4B00011760399517602210191049A0821059B76
:10C4C0004A401A430CD16146014301D1610707D5A7
:10C4D00030216A461176012101910299491E02918B
:10C4E0000399582904D037A103910FA90F910DE0AA
:10C4F00039A1F9E76146059B049AFEF7C5FF039B46
:10C500008C469B5C0F9A521E0F921370614601433A
:10C51000F0D10F9807A9081A20300390600704D5BE
:10C52000012000048443029801E001200290039955
:10C53000884201DD401A00E0002041180290019875
:10C5400009180098401A0090E00306D42146149B75
:10C55000139A009800F05AF886190020049008E019
:10C5600006A9085C149A139990470498401C761CFD
:10C57000049001998842F3DBE0030CD52146149B1B
:10C58000139A009800F042F8861904E0149A3020BB
:10C5900013999047761C0299481E02900029F5DCF9
:10C5A00008E00F980F990078491C0F91149A13997D
:10C5B0009047761C0399481E03900029F1DCFBE6A6
:10C5C0000928010030313233343536373839616269
:10C5D000636465660000000030313233343536372D
:10C5E000383941424344454600000000F8B504464E
:10C5F00000251E461746880404D405E0394620204D
:10C60000B0476D1C641EF9D52846F8BDFFB5044639
:10C61000002581B01E46C80301D5302700E0202741
:10C62000880404D505E038460399B0476D1C641EA4
:10C63000F9D5284605B0F0BD0A68531C0B60107090
:10C640007047000008B50B480B4900680090684629
:10C6500002F012FF002803D008A2272100F03AFAC6
:10C660000C481C22016891430831016002F0F4FE7D
:10C6700008BD0000081E020099C601002E2E5C2E87
:10C680002E5C2E2E5C6164635F636F6E6669672E3D
:10C69000630000002820002070B5054600780028BF
:10C6A00014D100240A4E0EE068686100405EE1216A
:10C6B000090148433146FEF73FFD024605A100202F
:10C6C000FFF7D6F9641C2889A042EDD870BD0000A0
:10C6D000FF0300000A2041444320686E646C723AF4
:10C6E0002564000070B5144A00215160020213480D
:10C6F0000A32426001240460114D2C60114A136813
:10C70000002BFCD011608068FEF792FE0E4A0F4BA2
:10C71000FEF7AEFD00220E4BFEF7AAFD00220D4BE8
:10C72000FEF7A6FD00220C4BFEF70AFEFEF78EFE7A
:10C7300080B26C6070BD0000007300400075004066
:10C740000070004000710040333333333333F33F24
:10C750000000084000408F4000F88F4070B5144939
:10C760000020124B0860134908608C681248427C14
:10C77000C5685600521CAC53D2B24274047CA2422B
:10C7800012D2846800226468002C0AD001228460DE
:10C790002068486001200860002A00D0186000204E
:10C7A00070BD44688460F3E7012070BD00700040F4
:10C7B000007100400075004028290020F7B584B0C2
:10C7C000064600251788158020300290407B1446CD
:10C7D000002806D03A462146059800F05FFF050084
:10C7E00009D1B078002823D0059886462088001DFE
:10C7F000B84202D90C2007B0F0BD684679DF0028A6
:10C80000F9D1218803207246505420881921401CF8
:10C8100080B22080115420887146401C80B2208054
:10C8200041186846008805F0B3F921884018208037
:10C83000F078002817D0218803230A46F356C91C34
:10C840000598B942D6D80221815421880122491C79
:10C8500089B2218042542188491C89B221804354E5
:10C860002088401C20807068002817D02188002371
:10C87000C3560A46C91C0598B942BBD80221815447
:10C8800021880A22491C89B2218042542188491CEE
:10C8900089B2218043542088401C208030890028A0
:10C8A0000AD0009430460197062202210830059BE9
:10C8B00005F0BCF905009ED1308A00280AD000940A
:10C8C00030460197072203211030059B05F0AEF991
:10C8D000050090D1308B00280AD000943046019793
:10C8E000152214211830059B05F0A0F9050082D10E
:10C8F000306A002806D03B462246059901F04EFAE0
:10C900000500D8D1706A002806D03B46224605991A
:10C9100002F0B0FC0500CED10298007B002807D0C1
:10C920003B4622463046059904F078FB0500C2D10B
:10C930003078002807D03B4622463046059902F061
:10C94000CDFC0500B7D1284655E70000174A002165
:10C95000535C002B01D0012203E0491C0629F7D3C8
:10C9600000221349012806D002280BD0032810D03A
:10C97000042818D112E04878002803D0002A01D0FA
:10C98000012070478878002803D0002A01D00220B7
:10C990007047C878002801D0032070470879002824
:10C9A00001D0042070470020704700006D20002057
:10C9B000CC26002030B5A5B0382101A8FEF7E9FB50
:10C9C000022168460171002484710521C17138215A
:10C9D0000FA8FEF7DEFB012510A885810D481490F5
:10C9E00020211DA8FEF7D5FB18A8C5754020219071
:10C9F000B4202290084B1DAA0FA9009401A800F0B2
:10CA000065FC002804D0FF2104A2993100F062F8EF
:10CA100025B030BD222000204D0102002E2E5C2EBC
:10CA20002E5C2E2E5C626C655F636F6E6669672E8E
:10CA30006300000070B50024064D06E06968E00060
:10CA4000085C012102F0A6FD641C28788442F5D31D
:10CA5000002070BDA0200020F8B515460C46064603
:10CA6000052A01D20720F8BD02F06AFE002803D192
:10CA700002F038FE0028F6D1104900204E600C70FC
:10CA8000C8608D6008610E4D0DE0E0006968801996
:10CA9000009181786A46517000780A4A694602F02E
:10CAA000C5FD0028DFD12046641EE4B20028ECD189
:10CAB000054A0021024800F03FFAF8BDA0200020FE
:10CAC000D81E0200BDEC010015DF010010B500F01A
:10CAD0000FF810BD0EB56B461980019202906A46A0
:10CAE00000210248FFF7F2FF0EBD000001400000E8
:10CAF00018B501246B461C701B78144B18605960E4
:10CB00009A601349401807D001280FD1DA60D8681D
:10CB100000889861D86807E01A61186980685861D0
:10CB200018690088986118694068D8611868586861
:10CB30009868D868186958699869D86972B668465B
:10CB400000780028FBD162B618BD000068290020DB
:10CB5000FFBFFFFF10B58268C368934203D001F0A6
:10CB6000FDFC002010BD052010BD002906D0002AC4
:10CB700002D0531E134203D0092070470E20704785
:10CB80000160838000218160C1600846704710B554
:10CB90008268C3689A1A83889A4203D801F0E8FC35
:10CBA000002010BD042010BD70B50024002903D062
:10CBB0008A070025002A01D0072070BD094A0B46CC
:10CBC0005160107018215570414318469560FEF76A
:10CBD000E0FA02F0B5FD002802D102F083FD044620
:10CBE000204670BDF420002070B5054640680B4E0D
:10CBF0000179715C0124FF290DD0FE290CD002F0CF
:10CC0000B3FF01466868064B007982009A5891424A
:10CC100002D1FF2131540024204670BD04210020A0
:10CC2000102A0020F8B50D460446174600680C216E
:10CC30002E4623224E43125C3118022A01D00820CE
:10CC4000F8BD4968B94206D1C16900293ED0606883
:10CC5000007988473AE02046FFF7C6FF002801D058
:10CC60001120F8BD61681A4A0979FE2050542368E2
:10CC70003A469E19776820462946002F02D09E69C1
:10CC8000B7420AD3002A02D09B69934202D803F02C
:10CC9000ABFC0BE003F0E2FC08E0002A01D0964276
:10CCA00002D803F065FD01E003F0E8FD2068C069EB
:10CCB00000280BD06168064A097902204900D21C7D
:10CCC000891848550221606802F084FF0020F8BDF1
:10CCD00004210020FFB581B006460768029D0C20A4
:10CCE00045432320C05DEC19002802D0082005B080
:10CCF000F0BD002060600498A0722C48006800908D
:10CD0000284631680A30085C002808D000206946AF
:10CD10004870039802F01CFD002816D101E00120A4
:10CD2000F5E7039878510127039938468840049A1B
:10CD30001F49002A01D0C86000E088600025601902
:10CD4000083002F093FD002801D00420CFE76D1CCD
:10CD5000EDB2022DF3D3207A02F0DCFD607A02F00E
:10CD6000D9FD206802F040FD05467068029902F086
:10CD700021FF0146207A2A4602F0ACFD206802F02D
:10CD800033FD05460221706802F014FF0146607A07
:10CD90002A4602F09FFDE7727168064A0979002071
:10CDA00049008A1802995054A1E70000001F0200B0
:10CDB0000005005007210020F7B588B00E00054699
:10CDC00009D02C68204620300690C078002804D076
:10CDD00008200BB0F0BD0B20FBE702F0B9FE0028E5
:10CDE00003D0852801D00420F3E702F0A9FC002835
:10CDF00005D102F077FC002801D00320E9E706986E
:10CE0000FF21017006984170069881700020074646
:10CE10000C2141430B19DF72FF221A725A72002251
:10CE2000D243401CC0B262500228F1D320462230C7
:10CE300002F01CFE002806D10027E019203002F085
:10CE400015FD002803D0284603F026FBCBE77F1C06
:10CE5000FFB2022FF1D30027B8003258501C12D075
:10CE6000F019037A39462846FFF734FF049000286A
:10CE700004D0284603F010FB0498AAE700223946A4
:10CE80002846FFF7CFFE7F1CFFB2022FE4D300201D
:10CE90000922244B316901E04908401C994201D91B
:10CEA0009042F9D3204A51689268029201916946F2
:10CEB000087168681D4A0079029001A9686802F04B
:10CEC000BFFE070004D0284603F0E6FA384680E7A4
:10CED00068680522006812028018316900690E0135
:10CEE000C640A661686802F04CFE01270097042343
:10CEF00032460221686802F08BFE0221686802F067
:10CF000060FE0A98E061686809490079094A800072
:10CF10000D506968FF20097950540698C7700020A9
:10CF200057E70000FF0F0000001F020091050200FC
:10CF30001C2A002004210020094B5B68002B07D02D
:10CF4000002A07D0002805D00068037C002B03D0FE
:10CF500008207047072070474174426100207047E5
:10CF6000C4200020FFB507469007002581B01E466B
:10CF70001446002825D1002C23D003F01FFF304693
:10CF8000114EF06030461030057045700299817086
:10CF900044607560357001240C4875702405046088
:10CFA00003211420FEF7C8FC09480460094CA7605F
:10CFB00003211120FEF7C0FC6068B060002005B0BE
:10CFC000F0BD0720FBE70000B420002080E200E075
:10CFD00000E100E000150140FEB51F4B5B68002B2F
:10CFE00030D000282ED0052901D20720FEBD43698C
:10CFF000002B27D0437C012B26D00027029104462A
:10D000000025694616460D70684600F0F1F801A843
:10D0100004F0F6FD002819D0012101700F49446089
:10D0200049688160029907614661C16068460A49A2
:10D03000007948706846007800F0F8F804F00CFABF
:10D040002846FEBD0820FEBD0F46D7E768460425EA
:10D05000007800F0EBF8F3E7C42000200015014051
:10D0600010B50849496800290AD0002808D041694C
:10D07000002905D000210174022104F015FA10BD29
:10D08000082010BDC420002070B50C4D0146AE78BC
:10D090000B48FFF75FFD0446002E0CD00020A8705F
:10D0A000691C0122C81D02F0B7FE002803D005A2AA
:10D0B000BA21FFF70FFD204670BD0000D4200020EC
:10D0C000882900202E2E5C2E2E5C2E2E5C2E2E5CAF
:10D0D0002E2E5C2E2E5C636F6D706F6E656E74739A
:10D0E0005C6C69627261726965735C756172745CB3
:10D0F0006170705F756172745F6669666F2E630040
:10D10000F0B5274E89B01F460D00044672601CD052
:10D11000A888296882B22348FFF727FD002815D187
:10D12000A889A96882B21F481030FFF71EFD0028A9
:10D130000CD120221C496846FEF712F8606906905F
:10D14000207C002804D0012103E0072009B0F0BDB5
:10D150000021684601750777607C002800D00E200A
:10D1600069464875E0680290A068039020680190C5
:10D17000606800900A480D4A083002F0DBFD002884
:10D18000E4D1B0702068401CE0D00548083002F0BF
:10D1900071FE03490122491CC81D02F03DFED5E77E
:10D1A000D420002088290020E01E02006916020019
:10D1B00010B501460C48FFF7EAFC040012D10B48F9
:10D1C00002F022FF00280DD1084907480839FFF76F
:10D1D000C1FC002806D1054901220839034802F0A4
:10D1E000B3FE0446204610BD98290020DC20002014
:10D1F00030B5EFF3108172B6094A54680123002C50
:10D2000004D00370002900D162B630BD5360054BD5
:10D210001D68054C254015601C6000220270F1E776
:10D22000E820002080E100E0FC06FFBC08494A68D5
:10D23000002A0CD000280AD1EFF3108072B60A68D9
:10D24000044B1A6000224A60002800D162B6704781
:10D25000E820002000E100E0800B01D000207047B2
:10D2600001207047F0B50C4693B01F216A4611802B
:10D27000072600279180002809D0C17849070DD5DD
:10D2800002A9FFF79BFA002809D102AD01E00025B1
:10D290001780002C0ED0E078002802D0304613B062
:10D2A000F0BD01AA0AA92046FFF788FA0028F6D1A6
:10D2B0000AAA02E068460022878068468088C3B2D6
:10D2C00068460088C1B2284672DFE8E7FFB581B042
:10D2D0001E460A9F1346040047D0002B45D0504DF0
:10D2E000012028700020E870202219464D48FDF7E3
:10D2F00037FF00206F61C0432E6128812846072137
:10D300001830FDF746FF474838212030FDF741FF30
:10D310004448217820300170A1788170E178C17093
:10D32000617841703F4A656923695563114613630B
:10D330002031E368A268CB608A603A49E369A26958
:10D34000CB638A63616A00291AD0014638310246EC
:10D35000443241628A60636A1B880B80616A436A57
:10D36000898899800021436A07E00E2005B0F0BD4E
:10D37000656AAD686D5C5554491C9D888D42F7D82F
:10D38000A16A00291CD0274A903211460C398A60C4
:10D390008162A36A9B888B80A16A836A098819804D
:10D3A0000021836A04E0A56AAD686D5C5554491C90
:10D3B0009D888D42F7D82C210A5D1A4940310A73A5
:10D3C000216A002909D016490A310162226A52886D
:10D3D0004A80216A026A098811806168002900D0A8
:10D3E0004160104A0E490020AF322031C3001B1AA1
:10D3F00085009B180C68401C63510828F6DB094A1D
:10D400000020E732030185009B188C68401C6351A3
:10D410000828F7DB034802992030FFF723FFA5E730
:10D4200054200020CC26002010B50188134C102970
:10D4300015D0112919D01B2910D1007A00280DD13F
:10D44000E0780521401CFDF761FE084600F030F849
:10D45000002803D06169002900D0884710BD817D74
:10D460000129FBD18088208110BD00216171808855
:10D4700021898842F8D10120E8E7000054200020EB
:10D4800010B5022801D003280ED1084C607800287E
:10D490000AD000206070E07800F00AF8002803D07D
:10D4A0006169002900D0884710BD00005420002089
:10D4B000F1B53F4C88B0207800280AD00898E07079
:10D4C00006A801F041F906980125002804D06570EE
:10D4D0006AE0082009B0F0BD354800270721183060
:10D4E000FDF757FE334E7078002802D0E07801280F
:10D4F00007D0B07800280CD0E078012801D00228AD
:10D5000007D12169002903D025710820884700E050
:10D5100027710898FFF71AFAE0702169002909D0ED
:10D52000032801D0042805D13078002802D0607982
:10D53000002811D0A77118216846FDF72AFE684619
:10D5400007700772E1781A480B001830FEF7B5FD36
:10D55000052E080F191D2000A57107208847EAE74E
:10D56000A5700190684605704782078213E002218A
:10D57000A170019068460570B189418231890182AC
:10D5800009E0684603F0B0FD02E0684603F0D8FD0C
:10D59000E078002803D0684673DF00289AD121691B
:10D5A000002901D0A0788847002093E7A770F6E70C
:10D5B00054200020CC26002070B5054601461C22D0
:10D5C0000E48FDF7CDFD0E4C002626702968002977
:10D5D00006D00822201DFDF7C3FD201D7ADF02E0E2
:10D5E0000748001D7BDF002807D1401E6080667061
:10D5F000044A00210448FFF79FFC70BD94280020D6
:10D60000842000209D1B0200C01E0200F8B5214CA2
:10D610000146028800261E48E589102A13D01E4FB5
:10D62000112A1FD0122A2BD0502A1AD1881DC9883E
:10D63000A94216D14189022913D10C3000F0FCF81F
:10D6400000280CD112E08A88044642801048082243
:10D650000C301831FDF784FD6670002D01D100F00B
:10D6600025FCF8BD0021C943418046703868FFF7AA
:10D67000F7FC0028F5D0A1690029F2D08847F8BD51
:10D68000034808220C300831FDF76AFDE7E7000087
:10D690008420002094280020C01E02007CB505468E
:10D6A00008880C460930904201D90C207CBD6846A0
:10D6B00071DF0028FAD121880820685420881B21B6
:10D6C000401C80B220802954208800A9401C80B2D0
:10D6D0002080401906220131FDF742FD208869466D
:10D6E000801D80B220800978002900D001212954B2
:10D6F0002088401C208000207CBD000010B504461E
:10D70000FFF784FF2146054800F03EF8204602F06E
:10D7100023FD2046FFF788FE10BD0000BC2200203C
:10D7200030B5184B0D4604000FCB85B003936B4604
:10D7300007C324D0002D22D00020C043A082286837
:10D74000A0610020A0752146684663DF002814D13F
:10D7500021786846817401210182A21C04A901205C
:10D76000A0DF002809D12946204603F05CFB0028F1
:10D7700003D12946204603F02AFF05B030BD0E2014
:10D78000FBE70000C41E020010B500281BD00029D2
:10D7900019D00A88102A17D0112A17D0502A12D16E
:10D7A00004468A1DC888238A1231984202D15389BF
:10D7B000022B0FD0A388984205D1A369002B02D079
:10D7C00052892046984710BD898801E00021C9434D
:10D7D000818210BD084600F02FF8002800D00120FB
:10D7E000A07510BD07B584B000280DD0828A114BFA
:10D7F0009A420BD0827D002A08D06A46128B142AE6
:10D8000006D9072007B000BD0E20FBE70820F9E786
:10D810000022009201920292039282896B461A8042
:10D82000039106A9029101219970808A6946A6DFB9
:10D83000E8E70000FFFF000041780278080210438B
:10D84000C007C00F7047000000B51E4887B00068D1
:10D850000590002348221C4905A803F0D9FC0028A4
:10D8600004D0FF2119A26131FFF734F96A46012182
:10D87000002003F0B5FC002804D0FF2113A267317B
:10D88000FFF728F9684603F0A1FC002804D0FF2127
:10D890000EA27131FFF71EF9124803F08DFC00282B
:10D8A00004D0FF2109A27531FFF714F90E4803F0E7
:10D8B000E1FC002804D0FF2104A27931FFF70AF926
:10D8C00007B000BD041E0200742200202E2E5C2E24
:10D8D0002E5C2E2E5C626C655F636F6E6669672ED0
:10D8E00063000000FDD6010061130200F8B5074691
:10D8F0000024234802E0641C042C1AD2A20082589F
:10D90000BA42F8D1042C14D21D481E4E0C380029FE
:10D9100029D001290ED002290BD1600020188019CE
:10D920004578002D05D018480169002901D0284606
:10D930008847F8BD61006118755C8E1971780029FF
:10D940000CD011490A224968806851430E4A521C82
:10D95000FFF742FB002801D10B4847700A48B17815
:10D9600014300155DDE78068FFF77AFB0648610057
:10D97000611814308919005D8D78A842D1D0F8BDA6
:10D98000901E0200A02600203C20002010B5054A71
:10D990000146127A0020D20702D0084600F004F8AF
:10D9A00010BD00003C200020FEB57A4D0722EB6838
:10D9B00092059A4302936B6800939C0006461B19DC
:10D9C00000200121019349050746734C3300FEF7FF
:10D9D00074FB180D1515374755677C887F8891DED5
:10D9E0009E9E9E9E9EC8CED1D8DEDE140F21029A46
:10D9F00049059143A160E7602F70FEBDA260E7601A
:10DA000060680F2252055040800209D5A160E7608E
:10DA1000022E02D1E120C0000AE07D20400107E093
:10DA2000E160A760022E01D1C82001E0FF20913003
:10DA30002E706421FDF76AFB0099414300223FE00C
:10DA4000A260E76060680F2252055040800204D552
:10DA5000A160E76019204001EAE7E160A760E3E721
:10DA6000A260E76060680F2252055040800202D534
:10DA7000A160E760D1E7E160A760D7E7A260E76057
:10DA800060680F2252055040800202D5A160E76015
:10DA900001E0E160A7602E700098410000220FE0D5
:10DAA000A260E76060680F2252055040800202D5F4
:10DAB000A160E76001E0E160A7602E70009900229C
:10DAC00036480068FFF788FAFEBDA260E7601BE0F9
:10DAD00061680120800502468A43A2600140E1603E
:10DAE00010E06068012189050A468243A26008406F
:10DAF000E060E3E76068012189050A468243A2608D
:10DB00000840E0600199C9E7E160A7602DE0234883
:10DB10004068FFF7A5FA11218A1B01D0002807D021
:10DB20000F22E96852051140A160E760EF60FEBD79
:10DB30000121C905E960012A0CD91046C8214843D2
:10DB40006421FDF7E3FA6968002241431348406805
:10DB5000FFF742FA0F22E96852051140E160A76021
:10DB6000FEBD0F214905A160E7602E70FEBD0722B2
:10DB70009205AAE70D214905A160E7600121890509
:10DB8000C2E70321C905A160E7608910BCE70F2146
:10DB90004905B9E73C20002000050050841E020022
:10DBA00010B501290ED10F280CD107A10020FDF7D7
:10DBB0005FFF0B48012101700A480278002A00D05B
:10DBC0000021017010BD00000A20427574746F6E50
:10DBD0002069732070726573736564200000000013
:10DBE0001E2000201D20002010B510490120FEF746
:10DBF000DBFF002804D0FF210D4AB931FEF76AFF90
:10DC0000A42201210B48FEF727FF002804D0FF21A2
:10DC1000074ABC31FEF75EFFFEF70CFF002804D078
:10DC2000FF21034ABF31FEF755FF10BD4C210020F4
:10DC300070040200042000200022D2438300044923
:10DC40000428CA5002D30818203002777047000019
:10DC5000C4280020F0B50025ED43002A02D000239F
:10DC6000042601E0042308260B4C04E09F00E7593A
:10DC70007F1C04D05B1CB342F8D32846F0BD2618A5
:10DC80005DB2203635709E00A151002AF5D1E11811
:10DC900020310877F1E70000C42800200249091864
:10DCA0002020085670470000C4280020002807D014
:10DCB0000449814204D80449814201D901207047B6
:10DCC000002070473C2100204C21002070B5084CFA
:10DCD000050009D010342168002907D008682060A9
:10DCE000496828468847F6E70834F4E770BD000025
:10DCF000B0280020F8B52348416800293ED00E68BE
:10DD000021494C6887688078E11B0D022D0AED1CC3
:10DD1000002814D101201D4A000450601B4A403ADB
:10DD200050601B49400008601A4908601A490120E8
:10DD300008602F2001F078FB124901208870B5425D
:10DD400000D23546E81900020F4B000A4033186034
:10DD50000D4A5168001B091B0902090A0002000A4A
:10DD6000C91C814209D9506818602F2001F05CFB62
:10DD700001200749400480390860F8BD03F01EF80F
:10DD8000F8BD0000B4200020001501404013014000
:10DD900080E200E000E100E000100140F8B5064636
:10DDA000108814468446801D0D46984201D90C20E7
:10DDB000F8BD32880720062AFAD31927FF01184B2D
:10DDC000BA4201D99A42F3D171880629F0D3B942F7
:10DDD00001D99942ECD19A4203D0994201D08A42AA
:10DDE000E6D805216046295420881221401C80B2C3
:10DDF000208029542088401C80B22080411930881E
:10DE000003F0C6FE2188401880B220804119708836
:10DE100003F0BEFE2188401820800020F8BD0000DD
:10DE2000FFFF000010B502A2AE21FEF753FE10BDA9
:10DE30002E2E5C2E2E5C2E2E5C626C655F636F6EE8
:10DE40006669672E6300000000B587B01C21684634
:10DE5000FDF79FF90521C90301910F210904002055
:10DE600002910090032269460A73C881087407482A
:10DE70000590074806906846FFF79EFB002803D0F0
:10DE800004A2C521FEF726FE07B000BD99020200DC
:10DE900025DE01002E2E5C2E2E5C2E2E5C626C6523
:10DEA0005F636F6E6669672E63000000F8B5164801
:10DEB00000F0C0FF144D00260C3D144C002807D084
:10DEC000616900291CD001206A461070684616E07E
:10DED0002878002805D06169002911D068460670AD
:10DEE0000DE0687800280DD0A1680948002200687C
:10DEF000FFF772F8002803D0A169002900D08847F5
:10DF00002E70F8BD6168F0E7902000209428002072
:10DF1000C01E0200F8B500260124154D23E06968F3
:10DF2000F0004718387821462A698140114218D0FC
:10DF30008A432A6101F0CCFB3A782146EB68914094
:10DF400019400346934099420BD17978012901D0B9
:10DF5000012100E000217B684140002B01D01046E8
:10DF60009847761CF6B228788642D8D3F8BD0000D0
:10DF7000A020002010B50E4900230A784C78A24258
:10DF800012D0521CD2B20A70022A00D10B700A7849
:10DF9000074B920018339A580260886810180002E4
:10DFA000000A8860012010BD0360002010BD000041
:10DFB000B4200020F8B5054632A103F065F9324CD3
:10DFC000A0600168616141683048FDF716F92F488B
:10DFD00000902A462EA100206369FDF749FD37A174
:10DFE0006069FDF7FCF802250026002839D034A12D
:10DFF0006069FDF7F4F8002835D032A16069FDF7BB
:10E00000EEF8002831D031A16069FDF7E8F800286A
:10E010002ED030A16069FDF7E2F800282AD02FA1A8
:10E020006069FDF7DCF8002826D02EA16069FDF7B5
:10E03000D6F8002822D02EA16069FDF7D0F800287C
:10E040001ED026702CA002F0D1FF30A10020FDF7D9
:10E050000FFD2078002802D00C48623805706670E9
:10E06000F8BD012002E02570F6E703202070F3E7F9
:10E070000420FBE70520F9E70620F7E70720F5E78E
:10E080000820F3E73B000000E81F00205E2200208C
:10E090000A20726563657074696F6E3A202573207B
:10E0A00020090920636D645F6B61793A2025732034
:10E0B00009206172673A2025732000005057000044
:10E0C00043505700424F464600000000434E554D16
:10E0D00000000000434D534700000000434E414DF7
:10E0E0004500000053454E445F4C49535400000026
:10E0F00044454C5F4E554D00436F6D6D616E6465D8
:10E1000020696E76616C6964650000000A20436FC7
:10E110006D6D616E646520696E76616C6964650021
:10E12000F8B5884D884E29783046002415302746AA
:10E1300000900B00FDF7C1FF09BF546FD57CC2DC16
:10E140002C06BF0080486230FDF784F802467FA1AC
:10E150000020FDF78DFC7C486230FDF77BF800065F
:10E16000840DE86880A600590821FDF712F8E868D8
:10E1700031460059FDF741F8734A7DA16232002013
:10E18000FDF776FC00F068FC6F4A83A162323EE046
:10E1900087A10020FDF76CFCFF269136E968A000FE
:10E1A0000B586948224689A15730FDF75BFF664846
:10E1B000573002F01BFF644A87A157320020FDF759
:10E1C00057FC641CE4B2304601F0E0F80A2CE5D3B9
:10E1D00084A002F00BFF87A10020FDF749FC6AE054
:10E1E00059496231FCF7FBFF00280AD088A002F0F1
:10E1F000FDFE554A8AA162320020009BFDF738FCE3
:10E2000059E090A002F0F2FE4F4A91A16232002044
:10E21000FDF72EFC4FE01421FCF7BBFF4A490098A4
:10E220006231FCF7EAFF00F06FFB90A1009A54E026
:10E23000454A94A162320020FDF71AFCE868A60066
:10E240008359224693A10020FDF712FCE86880590B
:10E25000FDF700F8002809D0E8688059FCF7B8FFFE
:10E26000082803D1641CE4B20A2CE7D322468EA10D
:10E270000020FDF7FDFB0A2C05D3FF20F53001F04F
:10E2800085F88CA015E0E868A60080590821FCF705
:10E2900080FFE8682C4980596231FCF7AEFF00F03E
:10E2A000DBFBE8682346825985A10020FDF7E0FBEF
:10E2B0008CA002F09BFE2F706F70F8BD22481421D5
:10E2C00033300446FCF765FF1F4920466231FCF7F6
:10E2D00094FF00F019FB224684A10020FDF7C8FB43
:10E2E000E6E788A10020FDF7C3FB37708FA0E0E7C9
:10E2F0001421701CFCF74DFF1349701C6231FCF7B0
:10E300007CFF00F001FB77A002F070FE8B48012437
:10E3100004708B48047001F0DDFF7D20000101F0E6
:10E3200035F80948623000F091FCC82001F02EF861
:10E33000824804708248077001F0CCFF721C81A1F2
:10E3400065E70000E81F0020FC2100200A696E201C
:10E3500044454C5F4E554D20776974682061726763
:10E360003A202564000000006E756C6C000000000F
:10E370000A6265666F7265207570646174653A6ED5
:10E38000756D202573206861732062656E20646559
:10E390006C657465640000000A6E756D202573203D
:10E3A0006861732062656E2064656C6574656400E5
:10E3B0000A696E206F7065726174696F6E20736593
:10E3C0006E64696E67206E756D7300004E554D3B2F
:10E3D00025643B25733B00000A73656E643A202573
:10E3E00073000000454E445F53454E445F4C495313
:10E3F000543B00000A6F7065726174696F6E207320
:10E40000656E64696E67206E756D73656E6400007D
:10E4100050575F494E56414C4944453B000000006F
:10E420000A206D6F6F6470617373652025732065BA
:10E43000737420696E76616C6964652D2D2D6D7025
:10E440003A25730050575F56414C4944453B000004
:10E450000A206D6F6F64706173736520257320658A
:10E4600073742076616C6964650000000A2050575F
:10E47000206573742063686E616E67E920612025F2
:10E48000732000000A696E20616464206E756D203F
:10E49000256420000A636F756E7420256420766100
:10E4A0006C202573000000000A636F756E742025D0
:10E4B000642000004E4D4245525F46554C4C0000D2
:10E4C0000A20756E206E756D2065737420616A6F09
:10E4D0007574E92025732061206C6120706F7320B2
:10E4E00025640000446F6E65000000000A206D7313
:10E4F00067206573742063686E616E67E920612030
:10E50000257320000A202D2D2D2D6D6F62696C65FD
:10E5100020636D642D2D42757A7A6572204F666690
:10E520002D2D2D2D2D2D2D2D2D2D2D0042555A5AB1
:10E530005F53544F5045443B000000001E20002014
:10E540001D200020424C45206E6F6D2065737420A5
:10E550006368616E67E920612025730082688388A3
:10E560001A4003689A5C0A708168491C8160704790
:10E57000C26883881A4003689954C168491CC16005
:10E58000704710B50446C0B2FEF712FE204610BD1B
:10E59000F8B506461C481F46007815460C46C007CD
:10E5A0000AD03046FFF782FB002807D0002C07D0A6
:10E5B000A00507D00620F8BD0120F8BD0220F8BD57
:10E5C0000320F8BD3068A04204D8A8027168001981
:10E5D000884201D90520F8BD002D10D0684602F010
:10E5E000CFF900280DD000980221C0C00170A10110
:10E5F000090C8180058102F03DFA0020F8BD04205D
:10E60000F8BD0720F8BD0000F020002070B50D46D1
:10E610000BA10020FDF72CFA114C002D09D0012090
:10E62000E0700C20FFF7B2F90EA10020FDF720FAF0
:10E6300070BD13A10020FDF71BFA0020E07070BD33
:10E6400066735F6576745F68616E646C6572202EB8
:10E650002E2E2E2E2E2E2E2E2E2E2E640A0D000045
:10E66000E81F00206673746F726167652068616ED1
:10E67000646C6572206661696C640A0D00000000BC
:10E680006673746F726167652068616E646C657231
:10E6900020737563636573730A0D0000F0B5264837
:10E6A000264C001B0309264819464069421C03D129
:10E6B0000120000740698002224A12789646D2075C
:10E6C0000CD00020F0BD1D4C15012C192568002D23
:10E6D00003D06468002C00D0491E521C9A42F2D329
:10E6E000002420E0E2B2002594462A460FE0134EB3
:10E6F0001701BE193768002F02D07768002F05D1A7
:10E70000767BAE4202D93546D6B2B446521C9A4206
:10E71000EDD362461501094AAA185060157BAD0277
:10E72000401B641C10608C42DCD3064871460122F9
:10E7300011430170C5E700004C2100203C2100205E
:10E7400000100010F0200020002804D00349496E7A
:10E75000016000207047032070470000A8290020B6
:10E76000F8B507461E481E46007815460C46C007F9
:10E770000ED03846FFF79AFA00280BD0002D0BD0A8
:10E78000002C09D028462043800707D00620F8BD7A
:10E790000120F8BD0220F8BD0320F8BD3868A04272
:10E7A00004D8B10078680919884201D20520F8BD63
:10E7B000002E11D0684602F0E3F800280ED0009831
:10E7C00006990760416001210172C560046186827B
:10E7D00002F050F90020F8BD0420F8BD0720F8BD74
:10E7E000F020002070B5174B0446186E18214843DE
:10E7F0001549C0180A78950715D5022C02D0032CAC
:10E800001CD102E001F0E8FD18E04A78521CD2B2B7
:10E810004A70032A12D900224A70082102F0C2FB72
:10E8200002F098F80AE0500708D5FB2002400A7071
:10E83000586E002802D0022002430A7002F0BCF891
:10E8400070BD0000A8290020F0200020F0B597B08E
:10E850001DA10020FDF70CF91F4E502203A83168BE
:10E86000FCF77EFC1DA103A802F00EFD1C4C1D4D03
:10E87000A0600168681CFCF7C0FCA06841682846DD
:10E8800015300090FCF7B9FCA06881682846293053
:10E890000746FCF7B2FCA068C1682846333004463E
:10E8A000FCF7ABFC6B1C03AA0F49002001970294F4
:10E8B000FDF7DEF87D203268400113180BA100201F
:10E8C000FDF7D6F817B0F0BD0A657874726163740D
:10E8D000696E6731000000003C2100203B00000011
:10E8E000E81F0020FC210020A41F02000A657874A4
:10E8F00072616374696E67313A2030782558093047
:10E900007825580A00000000F0B5264897B0014667
:10E910000A3903460246009101901E3B323A22A179
:10E9200002A8FDF79FFB02A8FCF752FC8008012714
:10E93000214C224D401C86B2E770214B3A462846B6
:10E940002968FFF725FE020004D01EA10020FDF774
:10E950008FF806E026A10020FDF78AF801E001F01B
:10E960007DFDE0780128FAD0E77015480090334625
:10E9700002AA12482968FFF7F3FE002801D022A15D
:10E9800000E02AA10020FDF773F801E001F066FD28
:10E99000E0780128FAD02AA10020FDF769F817B025
:10E9A000F0BD00002F22002025733B25733B25730B
:10E9B0003B25733B00000000E81F00203C210020A5
:10E9C0000DE601004653204552524F52204F43431B
:10E9D00055524544206572617365207061676520FA
:10E9E0003020202009204552523A2564200A000098
:10E9F000657261736520706167652030207375638F
:10EA00006365737373200A004653204552524F5278
:10EA1000204F434355524544207772697465206600
:10EA20006972737420627974650A00007772697480
:10EA300065207375636365737373200A00000000BB
:10EA4000656E64207570646174652E2E2E2E2E2ED8
:10EA50002E2E2E2E2E200A00F0B5A7B03EA10020AB
:10EA6000FDF706F80025424C19E0E068AE003018CA
:10EA70008038C06FFCF7ACFB082810D0E068082194
:10EA800030188038C06FFCF784FBE06839A130187B
:10EA90008038C06FFCF7B1FBC82000F077FC284637
:10EAA0006D1CEDB20A28E0D3E06804AE01461831CF
:10EAB0002EC92EC6014608312EC96E462EC60CC878
:10EAC0002FA108A8FDF7CEFA08A8FCF781FB800863
:10EAD000401C80B201270190314DE7702868BE02CA
:10EAE0008119304B3A462846FFF752FD020004D008
:10EAF0002DA10020FCF7BCFF06E036A10020FCF7AA
:10EB0000B7FF01E001F0AAFCE0780128FAD0E77035
:10EB100024480090286808AA81192148019BFFF722
:10EB20001FFE002804D031A10020FCF7A1FF09E05E
:10EB3000286837A182190020019BFCF799FF01E0AA
:10EB400001F08CFCE0780128FAD039A10020FCF714
:10EB50008FFF27B0F0BD0000696E2075706461748E
:10EB60006520322E2E2E2E2E2E2E2E2E2E00000022
:10EB7000E81F00205F5F6E756C6C5F5F0000000037
:10EB800025733B25733B25733B25733B25733B2541
:10EB9000733B25733B25733B25733B25733B00007B
:10EBA0003C2100200DE601004653204552524F52B1
:10EBB000204F434355524544206572617365207070
:10EBC000616765203120202009204552523A256492
:10EBD000200A0000657261736520706167652031ED
:10EBE000207375636365737373200A004653204571
:10EBF00052524F52204F4343555245442077726939
:10EC0000746520666972737420627974650A000005
:10EC100077726974652073756363657373732061BC
:10EC20007420307825580A207174653A25640000F4
:10EC3000656E6420757064617465322E2E2E2E2EE2
:10EC40002E2E2E2E2E2E200A000000003EB5044649
:10EC50006946112008722046FCF7BAFA82B22146B2
:10EC600002A87CDF002803D00CA27521FDF732FF3B
:10EC7000002000901022694601900A803C224A80C0
:10EC80008880FF209130C88068467ADF002803D052
:10EC900002A27F21FDF71EFF3EBD00002E2E5C2E3E
:10ECA0002E5C2E2E5C626C655F636F6E6669672EEC
:10ECB000630000000021017070470000F8B50746AE
:10ECC000104E0125BD403068FEF7CAF900280DD16D
:10ECD0000D4C2069284207D1384600F0F9FC002885
:10ECE000E06804D0284303E0A8432061F8BDA843AE
:10ECF000E0602069002228432061A1683068FEF7A7
:10ED00006BF9F8BDD81E0200A0200020F8B5204CF9
:10ED1000207800283AD0E068002600280ED0002590
:10ED20006078002832D1684652DF052808D00028D4
:10ED300008D0184A9621FDF7CDFE0BE00125EFE73C
:10ED4000012607E0009800F0EFFB2169002901D0BF
:10ED500000988847002D15D16078002816D160886A
:10ED600069460880A06861DF052806D0002806D023
:10ED7000084ABB21FDF7AEFE04E0012502E0E16890
:10ED8000A0688847002ECBD0002DE3D0F8BD00004E
:10ED900010210020F01F0200F8B50B30C608F60065
:10EDA000104D19E02068B04215D3B0420BD963680A
:10EDB000871B201D0093FCF7D3F9A019009B076067
:10EDC0004360286004E060682860201DFCF7C8F9F3
:10EDD000201D2660F8BD251D2C68002CE2D10020E6
:10EDE000F8BD000030210020012181400348406827
:10EDF000014201D001207047002070479820002078
:10EE00000121814003484078014201D00120704730
:10EE10000020704798200020014610B5012088404E
:10EE2000FEF71AFA10BD01218140880700D00120A9
:10EE300070470000418805480288914204D3408809
:10EE4000814201D8012070470020704788200020AF
:10EE50001048018CC9B2012917D1818C090714D13E
:10EE6000018D09060A0F03D1828D1206120F0ED0F2
:10EE7000090F012903D1828D1206120F07D0032931
:10EE800003D1808D0006000F01D0002070470120C3
:10EE900070470000C00F00F001218140880400D0BD
:10EEA00001207047F0B5284C2146103948688B681E
:10EEB000227886469C46CF78667836E018235343FE
:10EEC0006168521CC918A378D2B2934200D10022C3
:10EED0000B78022B02D0032B27D123E003464D6889
:10EEE000194603E0A94204D00B46C96900291CD089
:10EEF000F8E7002919D08B4208D1C069002805D154
:10EF0000124F0125BD600025AC4601270D68C96977
:10EF1000D961002909D00B685B190B6005E0017409
:10EF2000C06900E000210028F9D19642C6D1064907
:10EF3000624610398A604860CF70704501D0012068
:10EF4000F0BD0020F0BD0000C420002000100140F2
:10EF5000F8B52C4E044670680025009041E0002C66
:10EF600002D02046E46920E02648182310300178BA
:10EF700042684B43491CC9B2D21801708378994248
:10EF800000D105701178506801292CD1017C00292D
:10EF900029D191684160D16881601169C16051696E
:10EFA0008161F178002900D045604368B268164F4E
:10EFB000991A0902090AB94202D28268891806E040
:10EFC000D11A09028268090A8A4202D9511A0160DB
:10EFD00000E005604560012185600174C56102F0B3
:10EFE00043FA002CBBD107481030017840788142A9
:10EFF000BAD171680098814201D00120F8BD00208B
:10F00000F8BD0000B4200020FFFF7F009AB04EA1A1
:10F010000020FCF72DFD5848FFF74CFE564A002310
:10F02000783A05211846FDF79DFF002803D053A22A
:10F030005649FDF74FFDFDF705FB19A8FEF7D4FD76
:10F04000FEF702FCFFF72AFB002801D050A100E0E8
:10F0500054A10020FCF70CFDFFF7F8FB55A10020A0
:10F06000FCF706FD58480121006889024118642216
:10F070006846FCF775F855A1684602F005F9544D4D
:10F080003D4EE860701CFFF7E1FD02F00FF8FDF760
:10F0900091FCFEF7D9FEFF201021733001F03CFAFD
:10F0A000FF24F534204600F071F9042000F0EEFF53
:10F0B000484F1020B8601D2000F0E8FF01204007F5
:10F0C000B860204600F062F902F078FC42A100200E
:10F0D000FCF7CEFC0320FEF7EBF9002804D02B4907
:10F0E00026A22431FDF7F6FC404901200870404972
:10F0F0000020087001F0EEF8204600F047F93D4A84
:10F1000001213D48FDF718FF1B4801210022C903DA
:10F110009838FDF761FF39A10020FCF7A9FC002415
:10F12000032701F037FD22463378641C41A10020FB
:10F13000FCF79EFC6878C821484300F027F96F70FF
:10F1400001F08CF9EDE700000A2064656275742017
:10F1500070726F6772616D6D65202A2A2A2A2A2AC9
:10F160002A2A2A2A2A2A2A2A2A2A2A2A2A2A2A2AFF
:10F170002A2A2A2A00000000FC2100202E2E5C2EC4
:10F180002E5C2E2E5C6D61696E2E63009D02000068
:10F190004653204552524F52204F43435552454407
:10F1A0000A000000696E6974207375636365737388
:10F1B00073200A000A65787472616374696E67323D
:10F1C00032323232000000003C2100203B000000BF
:10F1D000E81F0020000500500A2074727920746F27
:10F1E00020636F6E6E656374000000001E200020B7
:10F1F0001D20002071130200001E02000A2E2E2E78
:10F200002E2E2E2E2E2E2E2E4C4F4F4F50202E2E89
:10F210002E2E2E2E2E2E2E2E2E2E2E2E2E2E2E2E0E
:10F220002E2E2E2E2E2E2E2E2E2E2E2E2E2E2E200C
:10F23000200000000A206379636C202564202E2EB4
:10F240002E2E2E2E2E2E2E2E2E2E2E2E2E2E2E2EDE
:10F250002E2E2E2E2E2E2E2E2E2E2E2E2E2E2E2ECE
:10F260002E2E2E2E2E2E2E2E2E2E2E2E2E2564209F
:10F270000000000070B5144682880E4605462088BE
:10F28000111D4118921C994201D8FE2A01D90C2067
:10F2900070BD521C32542088FF21401C80B2208057
:10F2A00031542088401C80B220808119288802F0C7
:10F2B0006FFC2188401880B22080AA88002A09D0DB
:10F2C000A968002908D08019FBF74AFF2088A9887F
:10F2D00040182080002070BD072070BDF8B50F4693
:10F2E000017814460546012902D16878002806D025
:10F2F0002088821C9A422DD8012902D006E00720DE
:10F30000F8BD69784118891C994223D8181A801EC3
:10F3100086B2684606802188B81C081869467DDFD9
:10F320000028EDD12878022805D169460988B14224
:10F3300001D809210AE00821012805D16878B042E6
:10F3400002D86A46108001E0684606806846008858
:10F35000FE2801D90C20F8BD2288401CB854208812
:10F36000401C80B22080395420886946401C20808F
:10F370000988401820800020F8BD01218907401825
:10F380000068002800D00120704700007D21C900DE
:10F3900048430FD00849094A096800BF00BF00BFB1
:10F3A00000BF00BF00BF00BF00BF914200D000BF40
:10F3B000401EF2D170470000242100200024F400F8
:10F3C0007D21C90048430FD00849094A096800BF98
:10F3D00000BF00BF00BF00BF00BF00BF00BF914221
:10F3E00000D000BF401EF2D1704700002421002051
:10F3F0000024F4007D21C90048430FD00849094A80
:10F40000096800BF00BF00BF00BF00BF00BF00BF52
:10F4100000BF914200D000BF401EF2D170470000F3
:10F42000242100200024F40000280FD00849094AB4
:10F43000096800BF00BF00BF00BF00BF00BF00BF22
:10F4400000BF914200D000BF401EF2D170470000C3
:10F45000242100200024F4000021064A4160516864
:10F46000002902D15060704711464A68002AFBD13A
:10F47000486070472829002070B50C4D0C46A97CC7
:10F48000002901D0082070BD094A00211160002C1C
:10F4900006D0002800D107480178072000F04AF87C
:10F4A00001202C60A874002070BD000028290020D5
:10F4B00000710040D41E020010B50C4C20780028CA
:10F4C00001D0852010BD0020A06060602061E06058
:10F4D000032100F02FF801F0C7FE0121002801D11F
:10F4E000034881612170002010BD0000B028002079
:10F4F0000005004038B50020694608706846FDF7F1
:10F5000077FE084C2078002801D1FFF7D5FFE0688E
:10F51000401CE0600120A07068460078FDF786FE80
:10F5200038BD0000B028002010B5002801D1FEF73A
:10F53000CDFB10BD8207D30EFF229A408907090E2A
:10F5400010B5994000280BDA03071B0F083B9C08F5
:10F550000C4BA400E318DC6994430C43DC6107E026
:10F560008408094BA400E418236893430B432360E9
:10F57000C106C90E0120884004490860044908609A
:10F5800010BD000000ED00E000E400E080E200E0DB
:10F5900000E100E0F3B581B00F46019800F046FFAE
:10F5A000012400281D4E019817D0FEF777FB801923
:10F5B0002030007F8009032802D0012806D007E010
:10F5C0001748006901998C40204201D1022100E0D6
:10F5D0000321019800F06CFDFEBD00F033FF002810
:10F5E000FAD00198FEF75AFB05468100C81D0D4A66
:10F5F000F93089180A6980B222430A6100F068FD77
:10F60000002FE9D00198FEF749FB80003058002810
:10F61000E2D00548AC404460FEBD0000C428002094
:10F62000000500500065004000630040FEB5044640
:10F6300023480E460019202141560027C8171346BB
:10F64000401C01D0082738E0F27819462046FEF722
:10F6500001FB0546401C2FD0B078002807D0194880
:10F66000A1000918086802229043086007E0002101
:10F670007378204600910A46019100F0D1FCF078A1
:10F68000002810D01048AA001018317802690F4BDA
:10F690001A400261E206D20C8907890B0A4301690C
:10F6A0000A43026109E00648327840192030017FA0
:10F6B00092011143017700E004273846FEBD0000A7
:10F6C000C42800200007005000650040FFE0FCFF58
:10F6D00003490969C140C807C00F00D00120704725
:10F6E0000005005070B5144D2879002801D008207D
:10F6F00070BD114900204039421E0B182033401CB8
:10F70000C0B21A702028F8D300242046FEF794FADD
:10F71000641CE4B2082CF8D303210620FFF70AFF8B
:10F72000FF207D3000F0D4FC01200449C007486070
:10F7300001202871002070BD0429002000630040D2
:10F7400002480079002800D00120704704290020D9
:10F75000FEB5044620480D4600190026203081578A
:10F76000491C01D0082633E0A97800291DD00122C8
:10F7700000212046FEF76EFA411C14D08300174882
:10F780002A78181869780369154F3B4003610369AB
:10F79000E706FF0C9207920BC907C90A3B430A43CD
:10F7A0001343036104E0042612E00121C943017000
:10F7B0006A780120A0400B49012A0BD0C8600021C3
:10F7C00000910B46012201912046114600F028FCD1
:10F7D0003046FEBD8860F2E7C42800200065004086
:10F7E000FFE0ECFF0005005010B5FEF757FA800669
:10F7F0000149000E401810BD00600040002900D0F3
:10F800000121074A121820201056820005481218BC
:10F81000106901231B0598430905084310617047CF
:10F82000C42800200065004010B5044600F00AFE20
:10F8300000280DD02046FEF731FAC0B2FEF7FCF9E1
:10F840002046FEF72BFA074A00218000801801614C
:10F85000054800210019C94320300170204600F0FE
:10F8600003FC10BD00650040C4280020F1B504274A
:10F87000164E82B000240020694608706846FDF7E5
:10F88000B7FC0125A540354204D02046FFF7ACFA6D
:10F8900000280CD068460078FDF7C8FC002F04D083
:10F8A000641CAE43E4B2002EE5D13846FEBD0849E3
:10F8B00001204A68A0401043486002980027047065
:10F8C00068460078FDF7B2FCEFE70000FF3F00005C
:10F8D0009820002070B514460D00064611D0002C6B
:10F8E0000FD0FFF7D9FA00280DD03046FFF77CFA89
:10F8F00000280AD00648F10008180561446100207C
:10F9000070BD0E2070BD072070BD082070BD0000C6
:10F9100000F5014010B50446FFF77EFA00280FD02D
:10F920002046FFF7B9FA002804D02046FFF75CFA1A
:10F93000002807D001200449A0408860002010BDA5
:10F94000072010BD082010BD00F5014010B5044689
:10F95000FFF762FA00280FD02046FFF79DFA002833
:10F9600004D02046FFF740FA002807D001200449C0
:10F97000A0404860002010BD072010BD082010BD29
:10F9800000F5014038B50546FFF786FA002812D089
:10F9900001240A48AC408460002168460170FDF7EC
:10F9A00027FC07484168A143416068460078FDF79D
:10F9B0003DFC002038BD072038BD000000F50140A7
:10F9C0009820002038B505460C460846FFF72BFA6C
:10F9D00000281CD02046FFF713FA002815D028462F
:10F9E000FDF73AFC002812D0002168460170FDF7AF
:10F9F000FFFB0848A1000818016829430160684618
:10FA00000078FDF713FC002038BD082038BD072022
:10FA100038BD000000F8014038B505460C460846E0
:10FA2000FFF701FA00281CD02046FFF7E9F900286B
:10FA300015D02846FDF710FC002812D0002168469A
:10FA40000170FDF7D5FB0848A10008180168A9431B
:10FA5000016068460078FDF7E9FB002038BD08200A
:10FA600038BD072038BD000000F80140F1B504277B
:10FA7000032682B000240020694608706846FDF71E
:10FA8000B7FB0125A540354204D02046FFF7B8F961
:10FA900000280CD068460078FDF7C8FB002F04D082
:10FAA000641CAE43E4B2002EE5D13846FEBD0749E2
:10FAB00001204A78A0401043487002980027047043
:10FAC00068460078FDF7B2FBEFE7000098200020C1
:10FAD00010B50446FFF7A7F900280BD02046FFF722
:10FAE0008FF9002808D0054A0120E1008918086034
:10FAF000002010BD072010BD082010BD00F00140FF
:10FB000038B50446FFF78FF9002819D02046FFF7D3
:10FB100077F9002816D00C490125E000401845600F
:10FB2000002168460170FDF763FB0848A540417855
:10FB3000A943417068460078FDF778FB002038BD86
:10FB4000072038BD082038BD00F001409820002073
:10FB500004480178002901D08520704701210170F7
:10FB6000002070479820002015220068890092012B
:10FB7000891840587047026888004030C0B2101899
:10FB8000704700680121C160704770B501242404EA
:10FB90008C40032605683602AD19002B01D06C603D
:10FBA00000E0AC60006889000818052109024018CF
:10FBB000026470BD02688800FF30413080B21018C6
:10FBC000704702680120000488400321090251188F
:10FBD000886070478A0010B5FF324132036892B2E4
:10FBE00000249C500268012000048840032109027F
:10FBF0005118486010BD00000268012111610079B0
:10FC00000C225043014A8018017270473C290020A1
:10FC1000F0B5FF25023504688D40FF34FF3402340F
:10FC2000059E2768AF4327600468FF34FF34023421
:10FC300025681D4325603346FFF7A7FFF0BD000090
:10FC400070B504460D4600790C21484322494618F8
:10FC5000307A002801D0082070BD002A05D032601B
:10FC6000686870600020034608E0072070BD8100CE
:10FC7000FF31226841315350401CC0B2617981424A
:10FC8000F5D82068E978000B40B2FFF753FC052057
:10FC900022680002121869785368C9075B085B0084
:10FCA000C90F0B4353602168AA7809188B68920723
:10FCB0009B089B00920F13438B60226829781018D1
:10FCC0000269090712091201090F0A4302610120A2
:10FCD0003072002070BD00003C29002030B5034682
:10FCE0000068C103C90E01208840104908601968E6
:10FCF0000020FF31C043FF3102310A6800240C604C
:10FD00000322196812028918886018790C21084D9D
:10FD100048434019007A022802D11846FFF76CFFC9
:10FD200018790C2148434019047230BD80E100E08D
:10FD30003C290020F7B505460C4600791C214843B4
:10FD400032494618F07E002801D00820FEBD2078F8
:10FD50000127394681402E488160206800F09EF9D5
:10FD60000321606800F089F92A6805200002121852
:10FD7000A1695162617D227D2B6811431A18D166F9
:10FD80002A680ACC1018C1604361207B083C012816
:10FD900013D10021A06800F070F9207B3946814022
:10FDA0001B488160E06800F079F929680522120299
:10FDB0008918E368A0688B60086102987060216907
:10FDC0003160002814D0FF231D332A68217F0020D2
:10FDD000D050FF232A684533D050032328681B02E4
:10FDE0000C4AC01842602868000B40B2FFF7A2FB23
:10FDF0000521286804220902401802600020F075DD
:10FE00003076B075F776B076FEBD00000C29002084
:10FE10000005005080000200F8B503791C246343FC
:10FE2000134C81251C19032766680023AD003F028F
:10FE3000002E02D00668F619B560E67D002E0ED0C1
:10FE4000237E002B07D06168002902D00068C0190A
:10FE500045601120F8BD21610123227604E0E2759E
:10FE60000025E1606576257600F01AF8F8BD0000FF
:10FE70000C29002070B5044600791C21074D484329
:10FE80004019807E002808D1204601F025F820790D
:10FE90001C22012150434019817670BD0C2900209D
:10FEA000F8B5044600791C21484326494518A87E28
:10FEB000184302D1204601F00FF868680028206836
:10FEC00007D081210322890012028018416000209E
:10FED000F8BDFF21453100224250FF212531206825
:10FEE00000F008F90646FF210931206800F002F908
:10FEF0000090FF214531206800F0FCF8074600988B
:10FF000038433043E9D03046384307D1294620688A
:10FF100000F076FFE87D697E8842DED80020E87533
:10FF2000002E01D00320F8BD002F01D00F20F8BD16
:10FF3000A97E01200029216801D00860C7E7486038
:10FF4000C5E700000C29002070B505460C46007975
:10FF50001C21484308494318284600F055F800285A
:10FF600001D0112070BD9A7500209C6098822846AF
:10FF700000F004F870BD00000C290020F8B504461C
:10FF800000791C2148431F4900264518FF27206897
:10FF90001D37C6512068012181602946206801F083
:10FFA00007FB6968002913D027E0FF270137FF21ED
:10FFB0001D31206800F09EF8002802D1A88AB842BE
:10FFC000F5D1A88AB84203D02946206801F0F0FA9A
:10FFD000A88AA97D8842E8D3A98AC81FF9380ED01B
:10FFE000FF271D373946206800F084F80028F9D033
:10FFF00020680121C1600020A8753046F8BD0F2699
:020000040002F8
:10000000F9E700000C29002000791C21484303492E
:100010004018807D002800D0012070470C29002066
:1000200030B552000A439900039C0A432102049D03
:100030000A4329040A43024980004018026030BD87
:100040000007005030B552000A439900039C0A4350
:100050002102049D0A4329040A43024980004018F2
:10006000026030BD000700501CB5002100910B4616
:1000700001220191FFF7D4FF1CBD1CB500220B46E5
:10008000009211460192FFF7DDFF1CBD024A0321D9
:100090008000801801607047000700501CB50021E7
:1000A00000910B46012201911146FFF7CBFF1CBDC9
:1000B000820006481018026803231B049A4302605A
:1000C000026809040A4302607047000000070050FC
:1000D00002494018002101607047000000600040A4
:1000E000034940180068012800D000207047000034
:1000F000006000404058002800D0012070470322D3
:10010000120280184068084000D0012070470000AB
:1001100010B50C4609A12046FBF761F800280BD06A
:10012000224607A10020FBF7A3FC2046FDF742FF73
:1001300014212046FBF72DF810BD00000000000040
:100140007265636576653A202573000010B5002856
:1001500001D101F01FF810BD70B53E4D0446018875
:100160000126A88888B03A293DD010DC022943D066
:1001700010291BD0112920D0132926D100231A467B
:1001800085217FDF002820D033A2FA2128E05129E1
:100190003BD052291BD0552917D1A088132176DFD7
:1001A000002812D0FF212CA20F3119E030A100202D
:1001B000FBF75EFC2E70A08806E032A10020FBF762
:1001C00057FC00202870401EA88008B070BD002396
:1001D0001A461946A9DF0028F7D0FF211EA20131D7
:1001E000FCF778FCF1E7A088132176DF0028ECD03B
:1001F000FF2119A20831F3E7A088002167DF00285A
:10020000E3D0FF2114A21431EAE71022A11D04A8B3
:10021000FAF7A6FF6846017C0029D6D0007E0428A4
:1002200003D0062801D00528CFD102290DD0684679
:100230000670FF20833069468880A088A8DF0028E8
:10024000C3D0FF2104A22F31CAE7022069460870FB
:10025000EFE700001C2000202E2E5C2E2E5C2E2EA0
:100260005C626C655F636F6E6669672E6300000099
:1002700064657669636520636F6E6E65637465643B
:100280000000000064657669636520646973636FCC
:100290006E6E65637465640010B50078002809D13E
:1002A00005483B21808876DF002803D003A2A521E2
:1002B000FCF710FC10BD00001C2000202E2E5C2E30
:1002C0002E5C2E2E5C626C655F636F6E6669672EB6
:1002D0006300000070B51D4CA078002816D060782F
:1002E000002814D01AA10020FBF7C2FB20780028B8
:1002F00002D01321A08876DF0A20FFF761F874DFAF
:1003000018A10020FBF7B4FB0020A07070BD1AA15B
:100310000020FBF7ADFB74DF02461CA10020FBF7B9
:10032000A7FB7D20C000FFF74BF80320FDF7C0F8C6
:10033000054602461BA10020FBF79AFB2800E3D0EC
:10034000FF211FA2AF31FCF7C5FBDDE71C20002019
:100350000A2073746F70696E67202E2E2E2E2E2E3B
:100360000000000073756363657366756C6C7920BB
:1003700073746F70656421000A207374617274690C
:100380006E67202E2E2E2E2E2E00000073756363B6
:10039000657366756C6C792073746F706564212069
:1003A0002564000073756363657366756C6C7920F2
:1003B000737461727465642120256420000000005C
:1003C0002E2E5C2E2E5C2E2E5C626C655F636F6E33
:1003D0006669672E6300000010B5134A0021517052
:1003E000017A012911D002290ED18189491C81810C
:1003F000C189491C89B2C181028A914204D100217C
:1004000000F0D0FD00F0A6FA10BD838AC28A991AC6
:10041000FF2901DC89B201E0FF210131511889B2C5
:10042000C1829942EBD010BDF02000200449081889
:1004300020214156042901DB01207047002070472C
:10044000C42800200449081820214156042901D25B
:100450000120704700207047C428002010B548DFF5
:10046000002804D0FF2102A2D431FCF733FB10BDD9
:100470002E2E5C2E2E5C2E2E5C6D61696E2E63001E
:1004800010B500680C2251430C18207AFFF742FA8D
:10049000607AFFF73FFA10BDF1B582B002980024F0
:1004A0000568281920300078FF2801D0FFF76AFA84
:1004B000641CE4B2022CF4D32220405DFF2801D05A
:1004C000FFF71EFB002420460C2148430026471955
:1004D0000090B8190190007AFF2804D0FFF752FA73
:1004E0000199FF200872761CF6B2022EF1D3009813
:1004F0002858411C05D0FFF797F900210098C943FF
:1005000029500020641CE4B2F872022CDBD302985C
:100510004068FFF7E3FBFEBD30B585B00D460446ED
:1005200014220B496846FAF71BFE01206946009524
:10053000049408720648074A0838FCF73DFC002876
:1005400003D005A22221FCF7C5FA05B030BD00009A
:100550001C1E0200850502002E2E5C2E2E5C2E2E07
:100560005C70776D5F636F6E6669672E6300000075
:1005700010B5046820342078FFF7CCF96078FFF7D5
:10058000C9F910BD014901200870704730200020D2
:10059000F8B50D4612480127002449000E18305DB9
:1005A000002806D0305D401E3055305D00280ED04A
:1005B0000027641CE4B2022CF1D3002F06D00948B6
:1005C000A900405802214068FFF7FBFAF8BD054832
:1005D000A90040580068C16928468847E9E700003B
:1005E000072100201C2A0020FEB50C4601680546A4
:1005F000009120460C214843009901904718164667
:100600002846FFF7B5FF21462846FFF739FF019836
:100610000A30002E09D000998969B1420FD88EB2F4
:100620002968085C002804D005E02968085C0028D7
:1006300001D0002100E001213868FFF7DFF8002336
:10064000324621466868FFF7A0FA7E606968024A70
:100650000979FF205054FEBD04210020F7B582B077
:100660000446056803980C21484347192035AE78A5
:10067000039800902046FFF77BFF20460399FFF781
:10068000FFFE00236068049A0099FFF77EFA314666
:100690003348FFF7C1F9397A012002468A40797A56
:1006A000884010433146FFF78DF979682D480029BD
:1006B00033D0F1000E1802216068FFF77BFA014683
:1006C00028783246FFF706F90023012203216068EB
:1006D000FFF75BFA606800210079820022488150B0
:1006E00003216068FFF747FA064602216068FFF7BA
:1006F00061FA014668783246FFF7ECF82878FFF790
:1007000025F96878FFF722F9049878606168174A3C
:1007100009790320505405B0F0BDF1000E1860684F
:100720000399FFF747FA014628783246FFF7D2F8D7
:1007300000231A4603216068FFF727FA60680399CF
:10074000FFF712FA616809798A0007498850032186
:100750006068FFF710FA064660680399C7E7000073
:10076000FF3F000000F00140102A0020042100207B
:10077000F7B5076882B0044603980C214843C219B4
:100780003D4620350092AE782046FFF7F1FE314617
:100790003648FFF741F9009A0121127A0846904045
:1007A000009A527A914008433146FFF70BF90499B9
:1007B0002F48002937D0398B89B20491F1000E18E7
:1007C00002216068FFF7F6F9014628783246FFF704
:1007D00081F80023012203216068FFF7D6F96068E1
:1007E0000021007982002348815003216068FFF7CF
:1007F000C2F9064602216068FFF7DCF90146687815
:100800003246FFF767F82878FFF7A0F86878FFF717
:100810009DF80099049848606168174A0979032097
:10082000505405B0F0BDF1000E1860680399FFF751
:10083000C1F9014628783246FFF74CF800231A46E2
:1008400003216068FFF7A1F960680399FFF78CF94D
:10085000616809798A000749885003216068FFF7B9
:100860008AF9064660680399C6E70000FF3F00006A
:1008700004F00140102A002004210020F7B582B0C6
:100880000546046803980C21484307192034A678CC
:100890002846FFF76DFE31462B48FFF7BDF822785A
:1008A0000121084690406278914008433146FFF7A5
:1008B00089F868680399FFF75EF90090032168687A
:1008C000FFF778F901462078009AFFF703F8686887
:1008D000052100680902401800690006000E13D0C7
:1008E000002104980818796888420FD23868FEF70A
:1008F0007BFF009003216868FFF75CF90146607890
:10090000009AFEF7E7FF07E00121EAE7627801209D
:1009100031469040FFF780F80498786000236868BB
:100920000321049AFFF731F93046FFF7D1F86968DF
:10093000064A09790498890050506968044A09797F
:100940000398505405B0F0BDFF3F0000102A00206E
:10095000042100200848416E491E416604D1074920
:10096000FD230A781A400A70016E491C01660429A9
:1009700001D1002101667047A8290020F020002045
:1009800070B50C490446486E042810D00A6E12183F
:10099000042A00D3121F401C4866182042435518F1
:1009A00001462846FAF7F5FB0120256070BD0020BE
:1009B00070BD0000A829002070B51D481822016EE6
:1009C00051430C18406E002829D0207A012802D00B
:1009D000022820D114E0A18AE08A091AFF2901DC4B
:1009E0008AB201E0FF220132E16880002369091820
:1009F000181829DF05460FA10020FBF739F806E09B
:100A000014A10020FBF734F8A08928DF0546112D3A
:100A100006D0002D03D00921204600F0C3FA70BD96
:100A20001349FD220878104004221043087070BD5D
:100A3000A82900200A2073746F72696E6720657898
:100A400065202D2D2D2D2D2D2D2D2D2D2D2D3131A3
:100A50000A000000206572617365206578652D2DA0
:100A60002D2D2D2D2D2D2D2D2D2D31320A00000057
:100A7000F020002010B5054801784A07920F04D1F4
:100A8000022211430170FFF797FF10BDF0200020F4
:100A900010B50446FF2286B0F53212A112A000F074
:100AA0006BFA142213496846FAF75AFB224612A140
:100AB0006846FBF7D7FA6A4612A10020FAF7D8FF7A
:100AC0007D24240104E06A460EA10020FAF7D0FF3D
